:100000000C942A000C943F000C943F000C943F0089
:100010000C943F000C943F000C943F000C943F0064
:100020000C943F000C943F000C943F000C943F0054
:100030000C943F000C943F000C943F000C943F0044
:100040000C943F000C943F000C943F000C943F0034
:100050000C943F0011241FBECFE5D8E0DEBFCDBF1A
:1000600010E0A0E6B0E0EEEBF0E002C005900D92EB
:10007000AA36B107D9F70E9441000C945D000C9498
:1000800000008FEF8ABB80E98BBB20E030E040E9C5
:1000900051E0F901E05AFF4F80818BBB88E893E182
:1000A000FA013197F1F70197D9F72F5F3F4F2A30C7
:0E00B00031057CF320E030E0ECCFF894FFCF78
:0A00BE00C0F9A4B0999282F8809076
:00000001FF
