:100000000C942A000C943F000C943F000C943F0089
:100010000C943F000C943F000C943F000C943F0064
:100020000C943F000C943F000C943F000C943F0054
:100030000C943F000C943F000C943F000C943F0044
:100040000C943F000C943F000C943F000C943F0034
:100050000C943F0011241FBECFE5D8E0DEBFCDBF1A
:1000600010E0A0E6B0E0E8EAF0E002C005900D92F2
:10007000AA36B107D9F70E9441000C9452000C94A3
:1000800000008FEF8ABB17BA8BBB88BB29E130E039
:1000900086B38BBB88E893E1F9013197F1F70197BB
:0800A000D9F7F6CFF894FFCF69
:0A00A800C0F9A4B0999282F880908C
:00000001FF
